:020000040800F2
:1000000000000220B90200085D0200086902000831
:100010007102000879020008810200080000000057
:10002000000000000000000000000000890200083D
:100030009502000800000000A1020008AD020008BF
:100040000903000809030008090300080903000860
:100050000903000809030008090300080903000850
:100060000903000809030008090300080903000840
:100070000903000809030008090300080903000830
:100080000903000809030008090300080903000820
:100090000903000809030008090300080903000810
:1000A0000903000809030008090300080903000800
:1000B00009030008090300080903000809030008F0
:1000C00009030008090300080903000809030008E0
:1000D00009030008090300080903000809030008D0
:1000E00009030008090300080903000809030008C0
:1000F00009030008090300080903000809030008B0
:10010000090300080903000809030008090300089F
:10011000090300080903000809030008090300088F
:10012000090300080903000809030008090300087F
:100130000903000800000000000000000903000897
:10014000090300080903000809030008090300085F
:10015000090300080903000809030008090300084F
:10016000090300080903000809030008090300083F
:100170000903000809030008090300080000000043
:10018000000000000903000800000000000000005B
:100190000903000800000000000000000903000837
:1001A000000000000000000000000000090300083B
:1001B00009030008090300080903000809030008EF
:0401C0000903000827
:1001C40010B5054C237833B9044B13B10448AFF38D
:1001D40000800123237010BD0000002000000000F7
:1001E4006003000808B5034B1BB103490348AFF390
:1001F400008008BD00000000040000206003000827
:1002040080B483B000AF114B1B6B104A43F0010361
:1002140013630F4B1B680E4A23F4406313600C4BAB
:100224001B680B4A43F480631360094B5B69084AFB
:1002340083F02003536100237B6002E07B68013379
:100244007B607B68034A9342F8D9EEE700380240AA
:10025400000002409F86010080B400AF00BFBD468D
:1002640080BC704780B400AF00BFFDE780B400AF2E
:1002740000BFFDE780B400AF00BFFDE780B400AF6E
:1002840000BFFDE780B400AF00BFBD4680BC70472F
:1002940080B400AF00BFBD4680BC704780B400AFDF
:1002A40000BFBD4680BC704780B400AF00BFBD46F0
:1002B40080BC7047DFF834D000F025F80C480D49B5
:1002C4000D4A002302E0D458C4500433C4188C42AD
:1002D400F9D30A4A0A4C002301E013600432A24213
:1002E400FBD300F017F8FFF78BFF704700000220E4
:1002F400000000200000002080030008000000200F
:100304001C000020FEE780B400AF00BFBD4680BCE7
:100314007047000070B50D4D0D4C641BA4100026F1
:10032400A64209D10B4D0C4C00F018F8641BA41024
:100334000026A64205D170BD55F8043B9847013606
:10034400EEE755F8043B98470136F2E778030008D6
:1003540078030008780300087C030008F8B500BFA0
:10036400F8BC08BC9E467047F8B500BFF8BC08BC92
:040374009E467047EA
:04037800E90100088F
:04037C00C5010008AF
:04000005080002B934
:00000001FF
